:020000040000FA
:100000000C94F2080C941A090C941A090C941A090D
:100010000C941A090C941A090C941A090C941A09D4
:100020000C941A090C941A090C941A090C941A09C4
:100030000C941A090C941A090C941A090C941A09B4
:100040000C9451150C941A090C94C1150C949B1521
:100050000C941A090C941A090C941A090C941A0994
:100060000C941A090C941A0900407A10F35A00A053
:10007000724E18090010A5D4E80000E87648170071
:1000800000E40B54020000CA9A3B000000E1F505B1
:10009000000080969800000040420F000000A086FB
:1000A00001000000102700000000E803000000002D
:1000B0006400000000000A000000000001000000D1
:1000C00000002C76D888DC674F0823DFC1DFAE59EB
:1000D000E1B1B796E5E3E453C63AE651997696E87E
:1000E000E6C28426EB898C9B62ED407C6FFCEFBC02
:1000F0009C9F40F2BAA56FA5F490055A2AF75C932D
:100100006B6CF9676DC11BFCE0E40D47FEF520E662
:10011000B500D0ED902E0300943577050080841E45
:10012000080000204E0A000000C80C333333330FA0
:10013000986E12831141EF8D2114893BE65516CF3D
:10014000FEE6DB18D1844B381BF77C1D901DA4BB49
:10015000E424203284725E228100C9F124ECA1E5FE
:100160003D274348323A50756C73653A444F4E45CB
:1001700023004348323A50756C73653A53544152E8
:100180005423004348333A50756C73653A444F4EDC
:100190004523004348333A50756C73653A535441D4
:1001A000525423004348343A4F464623006D70347E
:1001B000646F6D655F3463684F4C454423006D7018
:1001C00034646F6D655F3463684F4C45442300436E
:1001D00048343A4F4E230048554D49444954593A02
:1001E00053454E534F524552524F52230054454DA2
:1001F00050455241545552453A53454E534F52453E
:1002000052524F522300230048554D4944495459F6
:100210003A00230054454D50455241545552453AF9
:1002200000FFE0FFD1AFFF32FFD0FFFEFFE0FFD1C4
:10023000AEFFD0FFFEFFE0FFD11000FFFEFFD0FFBA
:10024000E0FFC1FFD1AED580A83FD300408D142080
:1002500000A1C8DA1281CFD9F1DB402EA4A6AFFFEE
:10026000D0FFFE23003A444154453A003A564552E5
:100270003A00424F4F543A53544152543A00434883
:10028000333A4F464623004348333A4F4E23004308
:1002900048323A4F464623004348323A4F4E2300F5
:1002A0004348343A4F464623004348343A4F4E239E
:1002B0000000000000240027002A000000000025A4
:1002C0000028002B000000000800020100000304C9
:1002D00007000000000000000000000000230026CE
:1002E00000290004040404040404040202020202BB
:1002F00002030303030303010204081020408001EA
:10030000020408102001020408102001060C00FE5F
:10031000070135026B20FFFE0AFE08FE0C0060227A
:10032000176780808080800080173363A0A0A002C0
:10033000566650F85050F8500159692070A8A070C6
:1003400028A87020025767C8C81020409898025704
:100350006740A0A040A8906827136380808011396F
:1003600069204040808080404020113969804040B1
:1003700020202040408002576720A8702070A820CD
:100380000355652020F820200133636060C00551CB
:1003900061F8122262C0C002576708101020404066
:1003A000801247676090909090906012376740C0CD
:1003B00040404040E0025767708808102040F80233
:1003C0005767F8081030088870025767103050904F
:1003D000F81010025767F880F00808887002576715
:1003E000304080F0888870025767F808101020208D
:1003F00020025767708888708888700257677088F5
:100400008878081060122565C0C000C0C00136663B
:100410006060006060C01335652040804020045358
:1004200063F800F8133565804020408002576770FC
:100430008810202000200257677088B8A8B8807004
:10044000025767708888F8888888025767F048489C
:10045000704848F002576770888080808870025723
:1004600067F04848484848F0025767F88080F080B5
:1004700080F8025767F88080F080808002576770AC
:10048000888080988870025767888888F88888886C
:10049000123767E04040404040E002576738101094
:1004A000101090600257678890A0C0A090880257F3
:1004B00067808080808080F802576788D8A8888805
:1004C00088880257678888C8A89888880257677004
:1004D000888888888870025767F08888F0808080D4
:1004E00002576770888888A89068025767F08888E4
:1004F000F0A0908802576770888070088870025753
:1005000067F8202020202020025767888888888864
:1005100088700257678888888850502002576788FB
:10052000888888A8A85002576788885020508888F3
:1005300002576788885020202020025767F808104B
:10054000204080F8113969E080808080808080E0E0
:1005500002576780404020101008113969E02020C0
:100560002020202020E0075363205088005161F8AC
:1005700017336380402002556570087888780257E9
:10058000678080F0888888F0025565708880887060
:10059000025767080878888888780255657088F05F
:1005A0008070025767304840E04040400057677015
:1005B0008888887808700257678080F088888888E3
:1005C0001237674000C0404040E0104969100030D9
:1005D00010101010906002576780808890E090881B
:1005E000123767C04040404040E0025565D0A8A89F
:1005F000A8A8025565B0C8888888025565708888A3
:100600008870005767F0888888F080800057677886
:10061000888888780808025565B0C88080800255AF
:100620006578807008F00257672020F82020201895
:1006300002556588888898680255658888885020A2
:100640000255658888A8A8500255658850205088B2
:1006500000576788888850204080025565F8102030
:1006600040F8113969204040408040404020211925
:1006700069808080808080808080113969804040DE
:1006800040204040408004536348A890FFFFFFFF94
:10069000FFFFFFFFFFFFFFFFFFFFFFFFFFFFFFFF6A
:1006A000FFFFFFFFFFFFFFFFFFFFFFFFFF0C0060EB
:1006B000221767800080808080800157672070A8A3
:1006C000A0A87020025767304840E04048B002556B
:1006D00065A8508850A80257678850F820F8202055
:1006E0002217678080800080808012486870806058
:1006F00090906010E0193161A0026767788494A43B
:1007000094847816356560A06000E0025565285035
:10071000A05028035363F80808153161E0026767A9
:100720007884B4A4A48478095161F8174464609073
:1007300090600257672020F8202000F817356540A8
:10074000A02040E0173565C0204020C0173363204B
:10075000408000576788888898E8808002586878C9
:10076000E8E8E868282828252262C0C01032622004
:10077000C017356540C04040E017356540A04000D7
:10078000E0025565A0502850A0025A6A40C040407F
:10079000503050781010025A6A40C040405028082B
:1007A000102038025A6AC0204020D03050781010F3
:1007B00002576720002020408870025A6A402000BB
:1007C000708888F8888888025A6A102000708888A3
:1007D000F8888888025A6A205000708888F88888CB
:1007E00088025A6A68B000708888F8888888025938
:1007F000695000708888F8888888025A6A205020DA
:10080000708888F888888802576778A0A0F0A0A030
:10081000B8005969708880808088701060025A6AB8
:10082000402000F88080F08080F8025A6A10200092
:10083000F88080F08080F8025A6A205000F88080AA
:10084000F08080F80259695000F88080F08080F8CC
:10085000123A6A804000E04040404040E0123A6A6C
:10086000204000E04040404040E0123A6A40A00092
:10087000E04040404040E0123969A000E040404084
:100880004040E0025767704848E8484870025A6A9A
:1008900068B0008888C8A8988888025A6A402000F2
:1008A00070888888888870025A6A1020007088884A
:1008B00088888870025A6A205000708888888888E2
:1008C00070025A6A68B000708888888888700259F7
:1008D0006950007088888888887003556588502022
:1008E0005088015969087098A8A8A8C87080025A51
:1008F0006A40200088888888888870025A6A102098
:100900000088888888888870025A6A205000888801
:100910008888888870025969500088888888888803
:1009200070025A6A10200088885020202020124728
:100930006780E0909090E080025767708890A09068
:1009400088B002586840200070087888780258689B
:1009500010200070087888780258682050007008CD
:1009600078887802586868B00070087888780257EC
:100970006750007008788878025868205020700806
:10098000788878025565702870A07800576770885D
:1009900080887010600258684020007088F0807075
:1009A0000258681020007088F0807002586820504B
:1009B000007088F0807002576750007088F0807077
:1009C000123868804000C0404040E0123868204043
:1009D00000C0404040E012386840A000C0404040A5
:1009E000E0123767A000C0404040E0025969502043
:1009F0005008788888887002586868B000B0C88845
:100A0000888802586840200070888888700258687A
:100A10001020007088888870025868205000708804
:100A200088887002586868B000708888887002579B
:100A300067500070888888700355652000F8002092
:100A40000255657898A8C8F0025868402000888848
:100A5000888870025868102000888888887002583A
:100A600068205000888888887002576750008888FE
:100A7000888870005A6A102000888888502040803A
:100A80000059698080F0888888F08080005969501A
:100A9000008888885020408001060A00FE07013641
:100AA000026820FFFE08FE07FE0A0060221767802A
:100AB000808080800080163363A0A0A0025767501A
:100AC00050F850F850500257672070A070287020DE
:100AD00002576748A8502050A89002576740A0A02E
:100AE00040A890682613638080801237672040807A
:100AF00080804020123767804020202040800355AE
:100B0000658850F850880355652020F8202011335F
:100B100063604080055161F811336340E040025743
:100B20006708081020408080025767205088888816
:100B300050200257672060A0202020F802576770DD
:100B40008808304080F8025767F80810300888702D
:100B500002576710305090F81010025767F880B0B5
:100B6000C8088870025767304080B0C88870025744
:100B700067F8081010204040025767708888708816
:100B8000887002576770889868081060113767404E
:100B9000E0400040E04011376740E04000604080A6
:100BA00012476710204080402010045363F800F87B
:100BB00012476780402010204080025767708810DD
:100BC00020200020025767708898A8B080700257D4
:100BD0006720508888F88888025767F0484870482E
:100BE00048F002576770888080808870025767F0ED
:100BF0004848484848F0025767F88080F08080F8FD
:100C0000025767F88080F080808002576770888084
:100C100080988870025767888888F8888888123793
:100C200067E04040404040E0025767381010101025
:100C300090600257678890A0C0A090880257678094
:100C40008080808080F80257678888D8A888888844
:100C50000257678888C8A89888880257677088886C
:100C600088888870025767F08888F08080800158F3
:100C7000687088888888A87008025767F08888F0AC
:100C8000A090880257677088807008887002576744
:100C9000F8202020202020025767888888888888AC
:100CA000700257678888885050502002576788889C
:100CB00088A8A8D88802576788885020508888025A
:100CC000576788885020202020025767F808102096
:100CD0004080F8123767E08080808080E0025767AC
:100CE00080804020100808123767E0202020202054
:100CF000E0065363205088015161F8282262804049
:100D000002556570087888780257678080B0C88877
:100D1000C8B00255657088808870025767080868F7
:100D2000988898680255657088F880700257673017
:100D30004840F040404000576778888878088870BD
:100D40000257678080B0C88888881237674000C023
:100D5000404040E010496910003010101090906041
:100D600002576780808890E09088123767C04040C3
:100D7000404040E0025565D0A8A8A888025565B05B
:100D8000C88888880255657088888870005767B061
:100D9000C888C8B080800057676898889868080835
:100DA000025565B0C880808002556570807008F07B
:100DB0000257674040F040404830025565888888B7
:100DC000986802556588885050200255658888A823
:100DD000A850025565885020508800576788889829
:100DE00068088870025565F8102040F8124767308F
:100DF0004020C02040302217678080808080808023
:100E0000124767C02040304020C006536348A89076
:100E1000FFFFFFFFFFFFFFFFFFFFFFFFFFFFFFFFE2
:100E2000FFFFFFFFFFFFFFFFFFFFFFFFFFFFFFFFD2
:100E3000FF0A006022176780008080808080015751
:100E4000672078A0A0A07820025767304840E04093
:100E500048B002556588705070880158688888507D
:100E600020F8202020221767808080008080800169
:100E700058687080E09048380870193161A00257B6
:100E8000677088A8C8A888701346667090B0500034
:100E9000F00265652448904824144262F010154120
:100EA00061F00257677088E8C8C88870095161F816
:100EB00016336340A0400256662020F82020F81523
:100EC000456560902040F0154565E0106010E02811
:100ED00022624080015666888888C8B080025767C1
:100EE00078E8E8682828282511618020226240805F
:100EF00015356540C04040E0134666609090600044
:100F0000F0026565904824489001696940C04040FE
:100F1000E40C143C0401696940C04040E814040832
:100F20001C015969C0204020C8182878080257675A
:100F3000200020204088700258684020708888F87F
:100F400088880258681020708888F8888802586855
:100F50002050708888F8888802586848B07088885F
:100F6000F888880258685000708888F88888025885
:100F7000682050708888F888880267673C50909C89
:100F8000F0909C00596970888080808870204002B1
:100F9000586840F88080F08080F802586810F88027
:100FA00080F08080F802586820F88080F08080F817
:100FB00002586850F88080F08080F81238688040CD
:100FC000E040404040E01238682040E0404040406F
:100FD000E012386840A0E040404040E0123868A08D
:100FE00000E040404040E0025767F04848E8484889
:100FF000F0025868285088C8A89888880258684025
:1010000020708888888870025868102070888888C6
:1010100088700258682050708888888870025868E4
:1010200028507088888888700258685000708888B6
:1010300088887002556588502050880257677098DC
:1010400098A8C8C870025868402088888888887026
:101050000258681020888888888870025868205054
:101060000088888888700258685000888888888836
:10107000700258681020888850202020025767800E
:10108000F088F0808080025767708890A09088B0C8
:10109000025868402000700878887802586810204C
:1010A00000700878887802586820500070087888A6
:1010B000780258682850007008788878025767507E
:1010C0000070087888780258682050207008788866
:1010D0007802656578147C907C00576770888088FA
:1010E0007020400258684020007088F880700258D4
:1010F000681020007088F8807002586820500070D6
:1011000088F8807002576750007088F88070123835
:1011100068804000C0404040E0123868408000C015
:10112000404040E012386840A000C0404040E0121B
:101130003767A000C0404040E0025767C030708869
:10114000888870025868285000B0C888888802587B
:1011500068402000708888887002586810200070ED
:1011600088888870025868205000708888887002CB
:10117000586828500070888888700257675000703F
:10118000888888700355652000F80020025565782E
:1011900098A8C8F00258684020008888889868029B
:1011A0005868102000888888986802586820500085
:1011B00088888898680257675000888888986800EF
:1011C000596910208888986808887000586880F0ED
:1011D000888888F08080005969500088889868085D
:1011E0008870F31511241FBECFEFD8E0DEBFCDBF4E
:1011F00012E0A0E0B1E0E2EBFEE302C005900D9248
:10120000A438B107D9F724E0A4E8B2E001C01D92E8
:10121000AF31B207E1F718E0C2EFD8E004C0219780
:10122000FE010E944A1FC13FD107C9F70E94A816BC
:101230000C94571F0C940000089580E00895CF92FD
:10124000DF92EF92FF92CF93DF93B0911304A0E06F
:101250008111AB2F8091140490E0880F991FAC018D
:1012600047525D4FC0901904D0901A04E0901B04BF
:10127000F0901C0430E020E0FA01C591D491E8819F
:10128000B90190E080E0EB23EA130AC02F5F3F4FE3
:101290006C157D058E059F0578F36FEF7FEFCB0111
:1012A000DF91CF91FF90EF90DF90CF900895209144
:1012B000D6033091D7032817390799F19093D703B4
:1012C0008093D603009739F12091E903FC012111A5
:1012D00029C03596E491E093EA030C96FC018491D1
:1012E0008093EB038091EA03082E000C990B209168
:1012F000EB03821B910927FD93952091EC03203489
:1013000041F0829FC001112426E0969587952A9589
:10131000E1F78093ED038DE199E09093E8038093EA
:10132000E7030895213031F43F96E491E093EA0316
:101330004096D4CF3D96E491E093EA030E96CECF4B
:10134000833081F028F4813099F08230A9F008953B
:101350008730A9F08830C9F08430B1F480918000E2
:101360008F7D03C0809180008F77809380000895E7
:1013700084B58F7784BD089584B58F7DFBCF809130
:10138000B0008F778093B00008958091B0008F7D7A
:10139000F9CFCF93DF93282F30E0F901EB53FD4FC6
:1013A0008491F901E950FD4FD491F901ED51FD4FC0
:1013B000C491CC23A1F081110E94A009EC2FF0E090
:1013C000EE0FFF1FE752FD4FA591B491EC91ED2375
:1013D00081E090E009F480E0DF91CF91089580E012
:1013E00090E0FACF1F93CF93DF93282F30E0F901DD
:1013F000EB53FD4F8491F901E950FD4FD491F90170
:10140000ED51FD4FC491CC23A9F0162F81110E94FC
:10141000A009EC2FF0E0EE0FFF1FE554FD4FA59162
:10142000B4918FB7F894EC91111108C0D095DE23D8
:10143000DC938FBFDF91CF911F910895DE2BF8CF02
:10144000CF93DF9390E0FC01E950FD4F24918D5143
:101450009D4FFC0184918823D1F090E0880F991F63
:10146000FC01EF54FD4FA591B491FC01E554FD4FF3
:10147000C591D491623071F49FB7F8943C91822F5A
:10148000809583238C93E8812E2B28839FBFDF9147
:10149000CF9108958FB7F894EC912E2B2C938FBF9A
:1014A000F6CF3FB7F89480912B0390912C03A09135
:1014B0002D03B0912E0326B5A89B05C02F3F19F030
:1014C0000196A11DB11D3FBFBA2FA92F982F8827C4
:1014D000BC01CD01620F711D811D911D42E0660F9F
:1014E000771F881F991F4A95D1F708958F929F9271
:1014F000AF92BF92CF92DF92EF92FF924B015C01CD
:101500000E94510A6B017C010E94510A6C197D09ED
:101510008E099F09683E734081059105A8F321E07B
:10152000821A9108A108B10888EEC80E83E0D81E7F
:10153000E11CF11C81149104A104B10429F7FF906E
:10154000EF90DF90CF90BF90AF909F908F900895D5
:101550002FB7F89460912703709128038091290395
:1015600090912A032FBF0895CF92DF92EF92FF92BE
:101570000F931F93CF93DF93CDB7DEB7C054D14005
:101580000FB6F894DEBF0FBECDBF0E94A80A00912F
:1015900015041091160420911704309118046B0162
:1015A0007C01C01AD10AE20AF30A97018601003DC4
:1015B00017402105310590F480911D04C05CDE4F79
:1015C0000FB6F894DEBF0FBECDBFDF91CF911F9154
:1015D0000F91FF90EF90DF90CF90089560931504E6
:1015E00070931604809317049093180410921004BB
:1015F00010920F0410920E0410920D0410920C041D
:1016000062E0809111040E94200A61E070E080E0B5
:1016100090E00E94760A61E0809111040E94200A05
:1016200060E0809111040E94F209809112048551BA
:10163000823020F58BE291E10197F1F762E0809131
:1016400011040E94200A80911E0490E082309105CE
:1016500038F0880F991F880F991F05970197F1F7A8
:10166000F89480E00E941F096F3F7F4F8F4F9F4F7C
:1016700061F410921D04789480E0A0CF64E170E0E2
:1016800080E090E00E94760AD9CF81E00E941F0995
:101690006F3F7F4F8F4F9F4F61F38E010F5F1F4F43
:1016A0006E012FEBC21A2EEFD20A780180E00E9461
:1016B0001F09F701608371838283938381E00E9415
:1016C0001F09F7016483758386839783F8E0EF0E23
:1016D000F11CEC14FD0451F7789430E020E0F8019F
:1016E000C080D180E280F38044815581668177811A
:1016F000FFEFCF16DF06EF06FF0631F04F3F8FEF0B
:1017000058076807780719F410921D04B5CFF9013E
:1017100083E0F595E7958A95E1F7E45FFB4F8081DB
:10172000880FC416D506E606F70610F180832F5FF2
:101730003F4F085F1F4F2832310589F64091100452
:1017400020910C0480910D04280F3327331F8091C2
:101750000E04280F311D80910F04820F932F911DCD
:1017600099274817190681F681E080931D0426CF3A
:101770008160DCCFFC01808D8F5F0895AF92BF92B6
:10178000CF92DF92EF92FF920F931F93CF93DF934D
:101790006C017B018B01040F151FEB015E01AE187C
:1017A000BF08C017D10759F06991D601ED91FC919E
:1017B0000190F081E02DC6010995892B79F7C501CB
:1017C000DF91CF911F910F91FF90EF90DF90CF901D
:1017D000BF90AF900895FC01538D448D252F30E0CC
:1017E000842F90E0821B930B541710F0CF9608952E
:1017F00001970895FC01918D828D981761F0A28D5B
:10180000AE0FBF2FB11D5D968C91928D9F5F9F7320
:10181000928F90E008958FEF9FEF0895FC01918DD6
:10182000828D981731F0828DE80FF11D858D90E043
:1018300008958FEF9FEF0895FC01918D228D892FE0
:1018400090E0805C9F4F821B91098F7399270895C8
:1018500081E393E00E941C0C21E0892B09F420E035
:10186000822F0895FC01A48DA80FB92FB11DA35A92
:10187000BF4F2C91848D90E001968F739927848FB0
:10188000A689B7892C93A089B1898C9183708064D3
:101890008C93938D848D981306C00288F389E02D74
:1018A00080818F7D80830895EF92FF920F931F9325
:1018B000CF93DF93EC0181E0888F9B8D8C8D981303
:1018C0001AC0E889F989808185FF15C09FB7F8940F
:1018D000EE89FF896083E889F9898081837080645B
:1018E00080839FBF81E090E0DF91CF911F910F91A6
:1018F000FF90EF900895F62E0B8D10E00F5F1F4FB5
:101900000F731127E02E8C8D8E110CC00FB607FCC3
:10191000FACFE889F989808185FFF5CFCE010E9451
:10192000320CF1CFEB8DEC0FFD2FF11DE35AFF4F81
:10193000F0829FB7F8940B8FEA89FB8980818062DF
:10194000CFCF0F931F93CF93DF938C01D0E0C0E0F4
:10195000F801EC0FFD1F6491662341F081E393E0F1
:101960000E94540C892B11F02196F2CFCE01DF9109
:10197000CF911F910F910895CF93DF93EC01888D44
:101980008823B9F0AA89BB89E889F9898C9185FDFA
:1019900003C0808186FD0DC00FB607FCF7CF8C9188
:1019A00085FFF2CF808185FFEDCFCE010E94320C02
:1019B000E9CFDF91CF910895DC011696ED91FC916E
:1019C000179712968C91481B477081E090E001C0F8
:1019D000880F4A95EAF7E60FF11D3081222319F0AE
:1019E000832B8083089580958323FBCFFB01418166
:1019F000DC0112962C911297421768F013962C91E5
:101A00001397241740F0608115962C91621718F4F3
:101A100024810C94DC0C0895FC0180819281980F44
:101A200092832181921760F494819F5F94839381C4
:101A3000890F821710F08FEF820F838381E0089562
:101A400080E00895FC01128280818150838314829A
:101A50000895DB01ED91FC9109940F931F93CF93AF
:101A6000DF931F92CDB7DEB70091D4031091D50359
:101A7000E0910304F091040482E0099530E020E055
:101A80004AE0B80182ED93E00E94290D182FE09101
:101A90000304F091040483E00995E0910304F091BC
:101AA000040480E009951123B9F16091D403709189
:101AB000D5039E012F5F3F4F46E482ED93E00E94E5
:101AC000290D89818093D2036091D4037091D5034D
:101AD0009E012F5F3F4F47E482ED93E00E94290D66
:101AE00089818093D3036091D4037091D50330E052
:101AF00020E048E482ED93E00E94290D8093DD030D
:101B00006091D4037091D50325E034E047E182ED84
:101B100093E00E94290D11E0812F0F90DF91CF916A
:101B20001F910F9108950F931F93CF93DF938C0113
:101B3000CEECD3E0EDA9FEA982E00995EDA9FEA9BE
:101B400081E0099530E020E044E1B80182ED93E0C6
:101B50000E94290D25E034E047E1B80182ED93E0D1
:101B60000E94290DEDA9FEA980E0DF91CF911F9180
:101B70000F9109940F931F93CF93E091E003F0919D
:101B8000E103309719F082ED93E009950091D403B9
:101B90001091D503E0910304F091040482E00995CB
:101BA000E0910304F091040481E0099530E020E025
:101BB00045E1B80182ED93E00E94290DC82F8823EA
:101BC00041F025E034E047E1B80182ED93E00E9466
:101BD000290DE0910304F091040480E009958C2F15
:101BE000CF911F910F9108951F93CF93DF93182FDB
:101BF000C0E0DFEF6091D4037091D503C093EE0392
:101C00001093EF031092F103D093F0032EEE33E024
:101C10004BE382ED93E00E94290DC85FC03851F775
:101C2000DF91CF911F910895CF93CEE28C2F0E9428
:101C3000F40DCF5FCC33D1F7CF9108958091080494
:101C40008E3248F0809106048C3328F4809105048C
:101C500087FF0C94140E08950F931F93CF93DF9377
:101C6000082FC0E011E0DFEF6091D4037091D5033D
:101C70000093EE03C093EF031093F103D093F003AE
:101C80002EEE33E04BE382ED93E00E94290DC85F16
:101C9000C03451F7DF91CF911F910F91089580913A
:101CA0000604803480F48091050487FD0CC080E038
:101CB0000E94F40D80E00E942C0E8FE70E942C0EF3
:101CC0008FE30C94F40D08950B96FC018491089514
:101CD0000A96FC0184910895FC01849108950E9464
:101CE0006C0E882321F0823011F083E0089586E0A5
:101CF0000895FC01E60FF11D849190E0982F88274C
:101D00003196E4918E0F911D089568E00C94790E40
:101D100066E00C94790EBF92CF92DF92EF92FF9221
:101D20000F931F93CF93DF938C01E62EDC01149663
:101D3000CD91DC91CE010E946C0EF82EF8018481C9
:101D400095810E946F0EB82EF1E0CC24CA94FF1248
:101D500002C02FE0C22ED80114968D919C910E9452
:101D6000680EF82EF801848195810E94640ED82EA9
:101D7000D80114968D919C910E94850EB0E6BE15F7
:101D800020F5009711F1C80FD91F91E6F92EDE1446
:101D900068F5D80150961C92509753961C92539711
:101DA00054961C92549751961C92519752961C929D
:101DB000D0E0C0E0CE01DF91CF911F910F91FF9055
:101DC000EF90DF90CF90BF900895F80184819581C6
:101DD0000E94880EF0E4FE1538F4009729F0C80F31
:101DE000D91F81E4F82ED3CF6196D1CFDF1488F2CA
:101DF0008B2D90E0FE0124912F3F29F42196FD14B4
:101E000041F2F394F7CFFE104BC0D80114968D9198
:101E10009C910E946C0E9E012F5F3F4FFE01882314
:101E200011F08230E1F48491D80153968C9353974A
:101E3000F901249154962C935497FE013396E49122
:101E40005096EC935097FE013496E4915196EC93A2
:101E50005197FE013596E4915296EC93ABCF849165
:101E6000982F9F709250D80152969C9352978295CA
:101E70008F7051968C935197F9012491822F8F7016
:101E800054968C93549722952F7053962C93539776
:101E9000FE013296E491E295EF705096EC938ACF72
:101EA0003296E491EC21E80FF92FF11DCE0FDF1FE0
:101EB000A6CF0F931F93CF938C01C0E0F8016191DF
:101EC0008F01662341F082ED93E00E948B0E80919A
:101ED000E203C80FF3CF8C2FCF911F910F9108957C
:101EE0005F926F927F928F929F92AF92BF92CF92AA
:101EF000DF92EF92FF920F931F93CF93DF93EC014A
:101F0000062F142F622F0E948B0E7C0180E0E114BB
:101F1000F104C1F18C819D810E946F0E3C89131BDD
:101F20009A89191B9FEF930F910F2CA94EA9411766
:101F300030F1921710F4911720F52B899989090F28
:101F40009FEF920F900F4BA95DA9501758F194176E
:101F500010F49017B0F4E80EF11C295F722E7694FD
:101F600076947694612E630E5E018CE1A80EB11C0E
:101F7000872C912C161529F0502E670128C0921736
:101F8000D0F68889DF91CF911F910F91FF90EF904C
:101F9000DF90CF90BF90AF909F908F907F906F9089
:101FA0005F9008959417A8F6ECCFF60184916A81AA
:101FB0007B815C8E1D8F1F8E8E8F95014BE3CE0132
:101FC0000E94290DFFEFCF1ADF0A88E0580E8C2DF2
:101FD0008E19871550F3E80CF91C1F5FCBCFEF92D9
:101FE000FF920F931F93CF93DF93F82E062FE42ECB
:101FF000152FE091E703F091E80382ED93E0099556
:10200000080FCE2DD12F10E02991211108C0812F6A
:10201000DF91CF911F910F91FF90EF900895402F86
:102020006F2D82ED93E00E94700FF80E180FECCF29
:102030002EE93FE0009709F40895F9013197F1F78F
:102040000197F8CFCF93DF9300D0CDB7DEB720ED67
:1020500037E03A8329839091BC00982311F081E006
:102060000FC029813A81232B81F48091300381FDB7
:10207000F6CF80912F0381110DC091E090932F0333
:102080000F900F90DF91CF91089529813A812150CF
:102090003109DFCF80E0F4CF84EA8093BC0061E0B7
:1020A00080E80E942210811102C080E00895809192
:1020B000B900887F883051F0803141F080912F0342
:1020C0008111F3CF82E080932F03EFCF88E78093D5
:1020D000BB0084E88093BC0062E080E80E9422108C
:1020E000882319F38091300381FD05C08091B900E8
:1020F000887F883119F781E0089584E98093BC00D6
:1021000064E080E10C9422108093BB0084E880930B
:10211000BC0063E080E80E9422108823A1F0809137
:10212000300381FD0DC08091B900887F883241F075
:1021300080912F03811106C092E090932F030895A0
:1021400081E0089580E0089510922F030895809310
:1021500030031092B90084FF05C08CE08093B80072
:102160000C94A41088E4FACFCF93DF93FC0123A54D
:10217000222389F0EC010E944C10811104C080E000
:10218000DF91CF9108958EA1811107C00E94841024
:102190008823A9F31BA681E0F3CF80E4F7CF0F9348
:1021A0001F93CF93DF93C62FD42F8901633001F1A2
:1021B00038F4613099F0623009F449C0C1E012C0CE
:1021C000663029F1673091F16530C1F70E94B41093
:1021D000811117C00E947D10C0E004C0FC0186A5DB
:1021E0000E94A7108C2FDF91CF911F910F9108951E
:1021F000FC0116A221E023A74111E0CF0E947D102F
:10220000DDCF8D2F0E9484108111D8CFE3CF0E94A3
:10221000B4108823F9F2DD2389F2F80181918F014E
:102220000E9484108823B1F2D150F5CF0E94B410DF
:10223000882381F2DD2311F2F80184910E94841039
:10224000C82F882379F20F5F1F4FD150F3CFFC01C5
:1022500046A321E023A7B2CFDB011496ED91FC91B8
:1022600030E020E065E00994DB011496ED91FC91EB
:1022700030E020E062E00994DB011496ED91FC91DE
:1022800030E020E063E00994CF92DF92EF92FF927A
:102290000F931F93CF93DF938C017B016A0180E042
:1022A000F601C491811110C081E0CF3F49F04C2F5D
:1022B000B701C8010E942C11882309F444C080E0B2
:1022C000BFEFCB1ADB0AECCF4FEFCF3F89F3CE3F06
:1022D000D9F1C03FA0F7C03E38F04C2F4F70B70186
:1022E000C8010E943411EBCFC03D38F04C2F4F7025
:1022F000B701C8010E943C11E2CFC03CF8F0D70101
:102300001496ED91FC9130E020E040E064E0C801DB
:102310000995C295C07FCE5FD0E0CE010E94181013
:10232000D7011496ED91FC9130E020E041E064E0AB
:10233000C8010995CE010E941810C1CFC7FDBFCFBB
:102340008C2F90E0F8CF80E0DF91CF911F910F911B
:10235000FF90EF90DF90CF900895AF92BF92CF9211
:10236000DF92FF920F931F93CF93DF936C018B014A
:10237000F42EE90180E1481709F47EC0841778F152
:10238000AAE04A1709F461C0BFE04B1709F47FC007
:10239000F80102811381F2E3FF1609F4DDC0FF1595
:1023A00008F48EC085E1F81609F4DBC0A7E1FA163F
:1023B00009F4ECC0B4E1FB1265C0D8011696ED91AA
:1023C000FC91179715968C918E0F9F2F911D11924E
:1023D0008E179F07E1F7C8010E94220D53C0E1E16B
:1023E0004E1709F451C0F5E14F13D2CFFB01A28083
:1023F000B38045E352E0C6010E944411D501149612
:102400004C91406BB801C6010E942C1141E0B8010B
:10241000C6010E943411F50126813781D801149636
:10242000ED91FC91D50115964C9166E0C601099598
:1024300081111CC080E0DF91CF911F910F91FF901F
:10244000DF90CF90BF90AF900895DB011496ED918F
:10245000FC9130E020E042E061E0C60109954DE3E7
:1024600052E0B801C6010E94441192CF40E0B80189
:10247000C6010E943C118CCF4CE252E0B801C6016B
:102480000E94441181E0D7CF41E252E0F7CF41E012
:10249000C6010E943C1140E0B801C6010E943411FF
:1024A00041E8B801C6010E942C114881B801C6015B
:1024B0000E942C1140E0B801C6010E943C11E2CFFD
:1024C000E6E4FE1609F46CC0F7E4FF1609F46DC0EB
:1024D0008BE3F812D7CF99818B8138E0390F8130A7
:1024E00031F0833011F0392F02C0392F985021E09C
:1024F000D80113964C91491708F420E041E03917B0
:1025000008F040E091E0F8015281351708F490E0BE
:10251000322F342B932319F4242309F4B3CFFA80F8
:10252000D12CC12C843048F490E0FC01EC5CFE4FCF
:10253000C080805D9E4FDC01DC90F7FE04C0BE01D0
:10254000C8010E94F60C88818C0D888389818D0DCD
:102550008983FF0C91F796CFBE01C8010E94F60C4B
:1025600091CFC8010E940C0D882309F463CFD801D4
:102570001696ED91FC91179715968C918E0F9F2FC3
:10258000911D11928E179F07E1F77CCF1882F801F9
:1025900082818983858181508A8383818B8372CFF5
:1025A000D80115968C9188836DCFF8018181FBCF7E
:1025B000DF92EF92FF920F931F93CF93DF93EC0183
:1025C000D62E1CAD0BAD7C0184E0E80EF11CE98D2C
:1025D000FA8DC7010995412F480F2D2D602FC70196
:1025E0000E94700F9BAD890F8BAF81E090E0DF916F
:1025F000CF911F910F91FF90EF90DF900895089574
:1026000090E080E00895FB0101900020E9F7319708
:10261000AF01461B570BDC01ED91FC910280F38169
:10262000E02D0994CF93DF930E94A10CEC0166E7A3
:1026300071E081E393E00E9403138C0F9D1FDF91F3
:10264000CF9108958F929F92AF92BF92CF92DF92D7
:10265000EF92FF920F931F93CF930E94A80AC0900E
:102660000403D0900503E0900603F09007039B015C
:10267000AC012C193D094E095F0969017A0130ED61
:10268000C31637E0D306E104F10408F44EC16093A9
:1026900004037093050380930603909307030E943D
:1026A000B40A882341F0809112048C3009F463C08D
:1026B00048F48B3001F1C12CD12C90ECE92E9FE72E
:1026C000F92E43C085518230B0F7C0910E046C2FB3
:1026D00070E0762F662766277F7780910F04682B3E
:1026E00090E080E00E94211E2DEC3CEC4CEC5DE380
:1026F0000E94D81E5CC060910E0470E090E080E003
:102700000E94211E6B017C01C0910F04C7FF0AC00B
:10271000AC019B0160E070E080E89FEB0E94AF1D80
:102720006B017C01CF706C2F70E090E080E00E9424
:10273000231E2DEC3CEC4CEC5DE30E94D81EA7015F
:1027400096010E94B01D6B017C010E94B40A88238F
:1027500009F4CCC0809112048B3030F08D3080F1C0
:102760008551823008F4B0C0812C912C80ECA82EC9
:102770008FE7B82E43C0C0910E046C2F70E090E03C
:1027800080E00E94211E6B017C0160910F046F703C
:1027900070E090E080E00E94231E2DEC3CEC4CECBD
:1027A0005DE30E94D81EA70196010E94B01D6B0137
:1027B0007C01C7FFCACFF7FAF094F7F8F094C5CFC1
:1027C00060910D0470E090E080E00E94231E2DECEB
:1027D0003CEC4CEC5DE30E94D81E4B015C01609127
:1027E0000C0470E090E080E00E94231E9B01AC018D
:1027F000C501B4010E94B01D4B015C01A701960107
:10280000C701B6010E94451F811170C0A501940146
:10281000C501B4010E94451F811168C020E030E06D
:10282000A901C501B4010E94D31E87FD5FC020E04D
:1028300030E048EC52E4C501B4010E941C1E181699
:102840000CF454C00EE111E021E044E0C701B601F0
:102850000E94231B02E111E021E044E0C501B40124
:102860000E94231B84E192E00E94A10C6EE171E0C2
:1028700081E393E00E94031382E192E00E9412132D
:1028800062E370E080E090E00E94760A88E092E0E7
:102890000E94A10CB80181E393E00E94031386E03B
:1028A00092E00E94121362E370E080E090E0CF912A
:1028B0001F910F91FF90EF90DF90CF90BF90AF905E
:1028C0009F908F900C94760A60910C0470910D0487
:1028D00076276727762790E080E00E94211E2DEC66
:1028E0003CEC4CEC5DE30E94D81E86CF69E771E0BA
:1028F0008EE191E00E94501F69E771E082E191E072
:102900000E94501F8DEE91E00E94121387ED91E01E
:10291000CF911F910F91FF90EF90DF90CF90BF90DC
:10292000AF909F908F900C941213CF911F910F91A5
:10293000FF90EF90DF90CF90BF90AF909F908F90DF
:102940000895EF92FF920F931F93CF93DF93C7E801
:10295000D1E001E010E08DE7E82E81E0F82E81E380
:1029600093E00E941C0C892B09F48EC081E393E054
:102970000E94FA0B8D3099F38A3089F3863609F478
:1029800078C0B4F58F3409F442C02CF4833439F0A4
:102990008DEA91E02AC08A35B9F18336C9F782E71A
:1029A00091E00E941213F0921D03E0921C030E941A
:1029B000A80A609318037093190380931A039093E5
:1029C0001B0361E084E00E94F20964EF71E080E0A3
:1029D00090E00E94760A60E084E00E94F209109282
:1029E00021031092200382E691E00E941213B7CFD8
:1029F0008F3669F02CF48B3659F60E942213AFCF34
:102A0000823761F18A3721F68EEB91E0EECF83E9D0
:102A100091E00E941213D0931D03C0931C030E94E7
:102A2000A80A609318037093190380931A03909374
:102A30001B0361E085E00E94F20964EF71E080E031
:102A400090E00E94760A60E085E00E94F209109210
:102A50001F0310921E0383E891E0C7CF61E086E078
:102A60000E94F20910932303009322038FEC91E05C
:102A7000BCCF60E086E00E94F2091092230310921E
:102A8000220384EA91E0B1CFDF91CF911F910F91A2
:102A9000FF90EF9008950E94280C81110C94A114CE
:102AA00008951F920F920FB60F9211242F933F9308
:102AB0008F939F93AF93BF938091270390912803A7
:102AC000A0912903B0912A033091260323E0230F1C
:102AD0002D3758F50196A11DB11D20932603809333
:102AE000270390932803A0932903B0932A0380918E
:102AF0002B0390912C03A0912D03B0912E030196EE
:102B0000A11DB11D80932B0390932C03A0932D0343
:102B1000B0932E03BF91AF919F918F913F912F91D1
:102B20000F900FBE0F901F90189526E8230F029666
:102B3000A11DB11DD2CF1F920F920FB60F9211247B
:102B40002F933F934F935F936F937F938F939F93B5
:102B5000AF93BF93EF93FF9381E393E00E94320C16
:102B6000FF91EF91BF91AF919F918F917F916F9165
:102B70005F914F913F912F910F900FBE0F901F903B
:102B800018951F920F920FB60F9211242F938F93C7
:102B90009F93EF93FF93E0914103F0914203808173
:102BA000E0914703F091480382FD1BC09081809122
:102BB0004A038F5F8F7320914B03821741F0E0919E
:102BC0004A03F0E0EF5CFC4F958F80934A03FF913E
:102BD000EF919F918F912F910F900FBE0F901F90AB
:102BE00018958081F4CF109234031092330388EE4D
:102BF00093E0A0E0B0E08093350390933603A09378
:102C00003703B09338038CE591E0909332038093BF
:102C1000310385EC90E090933E0380933D0384EC78
:102C200090E09093400380933F0380EC90E090937A
:102C300042038093410381EC90E09093440380939E
:102C4000430382EC90E0909346038093450386EC27
:102C500090E0909348038093470310924A031092A8
:102C60004B0310924C0310924D0382E080931104A9
:102C700086E180931204E9EFF2E0E491E09313041B
:102C8000E5EEF2E0E491E093140480E89EE3A0E036
:102C9000B0E08093190490931A04A0931B04B0939E
:102CA0001C041092D1031092D0038EE691E0909311
:102CB000CF038093CE031092090410920A0410925D
:102CC0000B041092D7031092D6031092D9031092DE
:102CD000D8031092DB0381E08093DA0382E28093D1
:102CE000DC031092E1031092E003E5EFF3E08FEFD5
:102CF000819394E0E330F907D9F781E08093F20300
:102D00002DE139E03093E8032093E7038093E90352
:102D10001092EA031092EB0380E48093EC0310928C
:102D2000ED038CE199E090930404809303048AE21C
:102D300091E09093D5038093D403109200040E94F5
:102D40002D0D8EE691E09093CF038093CE030895EE
:102D5000789484B5826084BD84B5816084BD85B576
:102D6000826085BD85B5816085BD80916E00816082
:102D700080936E0010928100809181008260809328
:102D8000810080918100816080938100809180002A
:102D90008160809380008091B10084608093B10055
:102DA0008091B00081608093B00080917A0084604F
:102DB00080937A0080917A00826080937A0080917B
:102DC0007A00816080937A0080917A008068809395
:102DD0007A001092C100E0914103F091420382E039
:102DE0008083E0913D03F0913E031082E0913F0328
:102DF000F09140038FEC808310924903E0914503EA
:102E0000F091460386E08083E0914303F091440310
:102E1000808180618083E0914303F091440380814D
:102E200088608083E0914303F0914403808180684F
:102E30008083E0914303F091440380818F7D808300
:102E400068E471E081E393E00E94031366E771E0B8
:102E500081E393E00E94031382E792E00E94A10CB9
:102E600068E471E081E393E00E9403138CE692E052
:102E70000E94A10C64E471E081E393E00E940313DB
:102E800085E692E00E94A10C68E371E081E393E0A3
:102E90000E94031383E692E00E94121388E99AE0ED
:102EA0000E945709C1E0C093F2038AEB9BE0909324
:102EB000E8038093E70362E0809111040E94200AF6
:102EC0000E94A80A605D774081099109609315040A
:102ED00070931604809317049093180487E38093EB
:102EE0001E0462E088E00E94200A62E089E00E94FD
:102EF000200A62E087E00E94200A62E08AE00E94E5
:102F0000200A61E084E00E94200A60E084E00E94E0
:102F1000F20961E085E00E94200A60E085E00E94FD
:102F2000F20961E086E00E94200A60E086E00E94EB
:102F3000F20980910B04811104C0C0930B040E941C
:102F40002D0D8091D4039091D5030E94930DAEE195
:102F5000EA2ECAEBDBE000E810E00E944F0EF8E03A
:102F6000FF2E6091D4037091D503F092EE03E092AE
:102F7000EF032EEE33E042E382ED93E00E94290D51
:102F8000F39428E7F212EDCF8BE093E00E9457090B
:102F9000D093E803C093E70385E991E00E94590FBD
:102FA000D801A81BB109CD01B7FD0196959587956C
:102FB00097FD80E045E951E06AE00E94EF0FD09371
:102FC000E803C093E70388E491E00E94590F980159
:102FD000281B3109C90137FD01969595879597FD05
:102FE00080E048E451E066E20E94EF0F0E94BA0DD3
:102FF0008111B3CF60ED77E080E090E00E94760A27
:1030000044244394512C01E010E06CEA662E61E008
:10301000762E92EC892E91E0992E2BEBE22E21E078
:10302000F22E34EAC32E31E0D32E4DE9A42E41E036
:10303000B42E0E94221388E00E94C90990930901CE
:103040008093080189E00E94C90990930B01809345
:103050000A0187E00E94C90990930D0180930C0139
:103060008AE00E94C90990930F0180930E0148E005
:1030700051E0C8E0D3E0E0E1F3E0DA018D919D9109
:10308000AD01299139918217930709F423C1009763
:1030900009F020C1518240829E0122503109D9019C
:1030A0008D939C933296B1E040315B0731F780916C
:1030B0002403909125038130910509F40EC18230DB
:1030C000910509F449C1892B51F480911403909121
:1030D0001503892B21F0109325030093240380917D
:1030E0000B04811105C081E080930B040E942D0D1B
:1030F0008091D4039091D5030E94930DCAEBDBE03D
:103100003324339488E99AE00E945709D093E80366
:10311000C093E7034AEC51E062E080E00E94EF0FC9
:103120009EE09093090482E0282E20920A046EE12A
:1031300071E08EEC93E00E9403134DEC51E062E0ED
:103140008CE20E94EF0F4FEC51E062E084E30E94BA
:10315000EF0F41ED51E062E086E40E94EF0FA2E53F
:10316000A093090420920A0462E171E08EEC93E0DE
:103170000E94031344ED51E062E080E70E94EF0FEC
:1031800080912403909125038130910509F4B7C102
:103190008230910509F4EFC1892B09F060C088E9FC
:1031A0009AE00E945709D093E803C093E70346EDE5
:1031B00051E06EE08EE10E94EF0FD093E803C093E0
:1031C000E7034DED51E06CE180E00E94EF0F80914C
:1031D00022039091230347EB51E0892B11F041E941
:1031E00051E06CE18CE10E94EF0F42EE51E06CE1A6
:1031F00086E40E94EF0F809120039091210347EB1A
:1032000051E0892B11F041E951E06CE186E60E9422
:10321000EF0F47EE51E068E280E00E94EF0F8091EF
:103220001E0390911F0347EB51E0892B11F041E9F8
:1032300051E068E28CE10E94EF0F4CEE51E068E251
:1032400086E40E94EF0F41EF51E068E286E60E94BB
:10325000EF0F45EF51E064E380E00E94EF0F8091B3
:103260001C0390911D03892B49F10E94A80A20910B
:1032700018033091190340911A0350911B03621BEC
:10328000730B840B950B603D774081059105B0F47D
:1032900088E99AE00E945709D093E803C093E703B6
:1032A0000E941E0E1092F20340911C0350911D03C8
:1032B00060E38EE10E94EF0F3092F2030E94BA0D9C
:1032C000811120CF0E94280C882309F4B2CE0E94DD
:1032D000A1149FCE11821082DFCE809116039091AF
:1032E0001703892B29F01092250310922403F7CE9F
:1032F0008091140390911503892B39F022E030E07E
:103300003093250320932403EACE809110039091FB
:103310001103892B61F0809110019091110182308D
:1033200091052CF0019790931101809310018091E9
:10333000120390911303892B09F4D1CE80911001CF
:1033400090911101833091050CF0C9CE01969093B4
:10335000110180931001C3CEC0911001D0911101D1
:10336000C230D10509F44BC0C330D10509F488C07F
:10337000C130D10501F58091100390911103892B83
:10338000F9F061E086E00E94F209D0932303C09334
:103390002203B0921D03A0921C030E94A80A60930E
:1033A00018037093190380931A0390931B0389EAFF
:1033B00092E00E941213809116039091170389CE18
:1033C0008091120390911303892BA9F360E086E0AA
:1033D0000E94F2091092230310922203D0921D033F
:1033E000C0921C030E94A80A6093180370931903EB
:1033F00080931A0390931B0380EA92E0DACF8091C6
:10340000100390911103892BC9F061E084E00E94C0
:10341000F209109321030093200370921D03609220
:103420001C030E94A80A60931803709319038093E9
:103430001A0390931B0388E992E0BBCF809112039B
:1034400090911303892B09F4B6CF60E084E00E94C9
:10345000F209109221031092200383EB91E09093E4
:103460001D0380931C030E94A80A609318037093A5
:10347000190380931A0390931B038FE892E099CF6E
:103480008091100390911103892BC9F061E085E0D0
:103490000E94F20910931F0300931E03F0921D0374
:1034A000E0921C030E94A80A60931803709319030A
:1034B00080931A0390931B0387E892E07ACF809160
:1034C000120390911303892B09F475CF60E085E016
:1034D0000E94F20910921F0310921E0390921D0386
:1034E00080921C030E94A80A60931803709319032A
:1034F00080931A0390931B038EE792E05ACF88E9DA
:103500009AE00E945709D093E803C093E70341E093
:1035100052E06EE088E20E94EF0FD093E803C09380
:10352000E70346E052E066E180E00E94EF0F41E1F0
:1035300052E060E28CE00E94EF0F4FE152E068E25F
:103540008CE00E94EF0F4DE252E060E38CE00E94BD
:10355000EF0F4BE352E068E380E00E94EF0F6091D1
:103560001001709111016D5F7F4F660F660F660F3E
:1035700048E452E071CE88E99AE00E945709D0935E
:10358000E803C093E703809110019091110182300C
:10359000910579F18330910509F440C0019709F054
:1035A0005ECE4AE452E06EE084E10E94EF0F88E9CB
:1035B0009AE00E94570943E552E060E280E00E94F1
:1035C000EF0F809122039091230347EB51E0892B69
:1035D00011F041E951E060E288E20E94EF0F4AE514
:1035E00052E06CE280E00E94EF0F47E652E066E3B3
:1035F00033CE42E752E06EE084E10E94EF0F88E9AB
:103600009AE00E94570943E552E060E280E00E94A0
:10361000EF0F8091200390912103D7CF4BE752E029
:103620006EE084E10E94EF0F88E99AE00E9457095A
:1036300043E552E060E280E00E94EF0F80911E03BC
:1036400090911F03C2CFEF920F931F93CF93DF93FD
:10365000E80134E047FD34E1042E000C550B57FF20
:1036600003C0519541955109E32E022F242FAE013D
:103670000E94411BCE01DF91CF911F910F91EF90DE
:103680000895A9E0B0E0E7E4FBE10C947E1D6A0137
:10369000F22EB02E102FFBE3AF2EA01608F41BE382
:1036A0001F5F012F27E0AE014F5F5F4F0E94A01CFC
:1036B000BC018981982F9970913009F43FC09BE239
:1036C000E1FC04C09E2D9170E0FC3AC05E2D50716B
:1036D000E82FE87083FF46C084E0911101C083E0C9
:1036E000EF2DE81B8F1508F0E0E0D6018E2F20E2C9
:1036F000552351F1992329F0D6019C93C6010196D7
:103700006C0196012D5F3F4FE2FE24C08EE4D6018E
:103710008C9391E411969C93119712968C93D901F6
:103720008E2F90E281111BC0E20FF32FF11D10824A
:103730008EEF9FEF2996ECE00C949A1D9DE2C6CF88
:1037400090E2C4CF2D9381508111FCCFCE0ED11CBD
:10375000E0E0D0CF8EE6D6018C9391E6DBCF9D934F
:103760008150E0CF482F447082FF3DC084E091112A
:1037700001C083E08F1510F4EF2DE81BD6018E2FCA
:1037800020E2552309F1992329F0D6019C93C60123
:1037900001966C0196012D5F3F4FE2FE1BC089E44C
:1037A000D6018C938EE411968C93119786E4129631
:1037B0008C93D9018E2F90E2882309F4B5CF9D9385
:1037C0008150FACF2D9381508111FCCFCE0ED11CA8
:1037D000E0E0D9CF89E6D6018C938EE611968C93E2
:1037E000119786E6E4CF9B0177FF02C030E020E02E
:1037F000A1E0B0E0911102C0B0E0A0E0F901319683
:10380000AE0FBF1F8B2C912CBB2009F461C054015B
:10381000EFEFAE1ABE0AAA0DBB1DFA161B0619F071
:1038200014F04F2D4A1B511188C0E3FC59C076019A
:10383000A42FB0E2A1114FC0C40ED11C992309F4EA
:103840005BC040E0D6011196F60190836D015523CF
:1038500009F448C0012F060F9A81582F507184FF38
:1038600003C0913309F4015010160CF047C0093021
:1038700008F008E0EEE2FE2E5B01A01AB108850117
:103880009194819491082F3F320729F4D601FC923C
:10389000F60131966F016217730794F1021713074F
:1038A0007CF5DB01A21BB30BAA24A394B12CAC0EB4
:1038B000BD1EAA0DBB1D11968C9121503109D60158
:1038C000119628153905F4F0F60180836D01DBCFE0
:1038D000B12CA12CA0CFF701B1937F01A150AACFA9
:1038E0009111B0CFD601942F50E302C05D93915057
:1038F0009111FCCFC40ED11C40E0ACCF01E0BACF97
:1039000080E3DBCF6217730731F4963388F4953385
:1039100011F4552369F0F6018083FD01842F90E2B4
:10392000811108C0A40FB11D1C9290E080E002CF6D
:1039300081E3F1CF91938150F3CF911183CF8ACF5F
:10394000283008F027E03327DA01990F311D87FD71
:10395000916000966105710539F432602E5F3D93E8
:1039600030E32A95E1F708959F3F30F080387105E4
:10397000610509F03C5F3C5F3D93913008F0806841
:10398000911DDF93CF931F930F93FF92EF92192F07
:10399000987F9695E92F96959695E90FFF27EE5318
:1039A000FF4F99273327EE24FF24A701E701059055
:1039B0000894079428F4360FE71EF81E491F511D7E
:1039C000660F771F881F991F0694A1F7059007942B
:1039D00028F4E70EF81E491F561FC11D770F881FD8
:1039E000991F661F0694A1F70590079428F4F80E16
:1039F000491F561FC71FD11D880F991F661F771FAC
:103A00000694A1F70590079420F4490F561FC71F8D
:103A1000D81F990F661F771F881F0694A9F78491F6
:103A20001095177041F0D695C79557954795F7941F
:103A3000E7941A95C1F7E8E6F0E0689415901591BF
:103A400035916591959105907FE27395E118F10AA2
:103A5000430B560BC90BD009C0F7E10CF11E431FF5
:103A6000561FC91FD01D7EF4703311F48A95E6CF1E
:103A7000E894015030F0080F0AF40027021708F408
:103A8000202F2395022F7A3328F079E37D932A950E
:103A9000E9F710C07D932A9589F606949795679566
:103AA000379517951794E118F10A430B560BC90B7C
:103AB000D00998F023957E9173957A3308F070E3DE
:103AC0007C932013B8F77E9170617D9330F08395DD
:103AD00071E37D9370E32A95E1F71124EF90FF9055
:103AE0000F911F91CF91DF91992787FD90950895B0
:103AF0002F923F924F925F926F927F928F929F92FE
:103B0000AF92BF92CF92DF92EF92FF920F931F93EB
:103B1000CF93DF93CDB7DEB7CA1BDB0B0FB6F8949C
:103B2000DEBF0FBECDBF09942A88398848885F84DC
:103B30006E847D848C849B84AA84B984C884DF804D
:103B4000EE80FD800C811B81AA81B981CE0FD11D31
:103B50000FB6F894DEBF0FBECDBFED0108955058EB
:103B6000BB27AA270E94C71D0C94991E0E948B1E7A
:103B700038F00E94921E20F039F49F3F19F426F489
:103B80000C94881E0EF4E095E7FB0C94821EE92F3E
:103B90000E94AA1E58F3BA17620773078407950795
:103BA00020F079F4A6F50C94CC1E0EF4E0950B2EC3
:103BB000BA2FA02D0B01B90190010C01CA01A0017F
:103BC0001124FF27591B99F0593F50F4503E68F1DA
:103BD0001A16F040A22F232F342F4427585FF3CF1B
:103BE000469537952795A795F0405395C9F77EF4EC
:103BF0001F16BA0B620B730B840BBAF09150A1F035
:103C0000FF0FBB1F661F771F881FC2F70EC0BA0FBA
:103C1000621F731F841F48F4879577956795B79542
:103C2000F7959E3F08F0B0CF9395880F08F099273D
:103C3000EE0F9795879508950E945E1E08F481E027
:103C40000895E89409C097FB3EF49095809570958F
:103C500061957F4F8F4F9F4F9923A9F0F92F96E9D8
:103C6000BB279395F695879577956795B795F1114D
:103C7000F8CFFAF4BB0F11F460FF1BC06F5F7F4FEA
:103C80008F4F9F4F16C0882311F096E911C07723FC
:103C900021F09EE8872F762F05C0662371F096E805
:103CA000862F70E060E02AF09A95660F771F881FD4
:103CB000DAF7880F9695879597F90895990F000878
:103CC000550FAA0BE0E8FEEF16161706E807F907EE
:103CD000C0F012161306E407F50798F0621B730B89
:103CE000840B950B39F40A2661F0232B242B252B0A
:103CF00021F408950A2609F4A140A6958FEF811DAD
:103D0000811D089597F99F6780E870E060E008954D
:103D10009FEF80EC089500240A94161617061806E3
:103D20000906089500240A941216130614060506BF
:103D30000895092E0394000C11F4882352F0BB0F50
:103D400040F4BF2B11F460FF04C06F5F7F4F8F4FB3
:103D50009F4F089557FD9058440F551F59F05F3FEE
:103D600071F04795880F97FB991F61F09F3F79F09D
:103D700087950895121613061406551FF2CF46951F
:103D8000F1DF08C0161617061806991FF1CF8695A1
:103D90007105610508940895E894BB276627772785
:103DA000CB0197F908950E945E1E08F48FEF0895E5
:103DB0000E94EB1E0C94991E0E948B1E38F00E94EC
:103DC000921E20F0952311F00C94821E0C94881EF4
:103DD00011240C94CD1E0E94AA1E70F3959FC1F36E
:103DE000950F50E0551F629FF001729FBB27F00DA9
:103DF000B11D639FAA27F00DB11DAA1F649F6627FE
:103E0000B00DA11D661F829F2227B00DA11D621F4C
:103E1000739FB00DA11D621F839FA00D611D221F06
:103E2000749F3327A00D611D231F849F600D211DEA
:103E3000822F762F6A2F11249F5750409AF0F1F06D
:103E400088234AF0EE0FFF1FBB1F661F771F881FD6
:103E500091505040A9F79E3F510580F00C94821E6E
:103E60000C94CD1E5F3FE4F3983ED4F3869577958E
:103E70006795B795F795E7959F5FC1F7FE2B880F7C
:103E8000911D9695879597F908950E945E1E880B5F
:103E9000990B0895EE0FFF1F0590F491E02D099402
:103EA000FB01DC0101900D920020E1F70895F894E8
:103EB000FFCF0840000000808402010000000000E5
:103EC000000001002D2D2E2D00000000000000003C
:103ED0002D2D2E2D0000000000000000AD1100016E
:103EE000CF10000100FF0100FF004D617220323150
:103EF000203230323600312E32006D7034646F6DF6
:103F0000655F3463684F4C45440000000000540C6A
:103F1000BE0BEB0BBC0C1C0CFA0B0E0C00000000D3
:103F2000D812BE0B0013FF120D0A00455252004377
:103F300048322050756C7365004348332050756CCF
:103F40007365004F4E200050524F4752414D004381
:103F50004834204F4E00434834204F4646004348E3
:103F600032204F4E00434832204F464600434833EC
:103F7000204F4E00434833204F464600543A00B08D
:103F8000004300483A002500535441545553004320
:103F900048343A004348323A004348333A004348F1
:103FA000313A004E2F410052494748543A204D655E
:103FB0006E75004D454E550055502F444E204D6FA7
:103FC000766500312E20434834204F4E2F4F464611
:103FD00000322E20434832204F4E2F4F46460033AA
:103FE0002E20434833204F4E2F4F4646003E3D5330
:103FF000454C203C3D4241434B003E004348342069
:104000004354524C0053746174653A0055503A4F12
:104010004E20444E3A4F4646004C4546543A2042C4
:1040200061636B00434832204354524C0043483391
:06403000204354524C0035
:107800000C94343C0C94513C0C94513C0C94513CE1
:107810000C94513C0C94513C0C94513C0C94513CB4
:107820000C94513C0C94513C0C94513C0C94513CA4
:107830000C94513C0C94513C0C94513C0C94513C94
:107840000C94513C0C94513C0C94513C0C94513C84
:107850000C94513C0C94513C0C94513C0C94513C74
:107860000C94513C0C94513C11241FBECFEFD8E036
:10787000DEBFCDBF11E0A0E0B1E0ECE9FFE702C060
:1078800005900D92A230B107D9F712E0A2E0B1E065
:1078900001C01D92AD30B107E1F70E942D3D0C945F
:1078A000CC3F0C94003C982F959595959595959582
:1078B000905D8F708A307CF0282F295A8091C0000B
:1078C00085FFFCCF9093C6008091C00085FFFCCF60
:1078D0002093C6000895282F205DF0CF982F809127
:1078E000C00085FFFCCF9093C6000895EF92FF92F1
:1078F0000F931F93EE24FF2487018091C00087FD22
:1079000017C00894E11CF11C011D111D81E4E8164B
:1079100082E4F8068FE0080780E0180770F3E09132
:107920000401F091050109958091C00087FFE9CF1E
:107930008091C6001F910F91FF90EF9008950E94D3
:10794000763C982F8091C00085FFFCCF9093C600B5
:1079500091362CF490330CF09053892F089597555D
:10796000892F08951F930E949F3C182F0E949F3CCF
:107970001295107F810F1F9108951F93182F882350
:1079800021F00E94763C1150E1F71F9108951F935A
:10799000182F0E94763C803249F0809103018F5F5E
:1079A000809303018530C1F01F9108958091C0003C
:1079B00085FFFCCF84E18093C6008091C00085FFE5
:1079C000FCCF1093C6008091C00085FFFCCF80E102
:1079D0008093C6001F910895E0910401F091050184
:1079E00009951F9108950E94763C803241F0809164
:1079F00003018F5F80930301853081F008958091AA
:107A0000C00085FFFCCF84E18093C6008091C00058
:107A100085FFFCCF80E18093C6000895E0910401CA
:107A2000F09105010995089540E951E08823A1F0FE
:107A30002D9A28EE33E0FA013197F1F721503040CA
:107A4000D1F72D9828EE33E0FA013197F1F7215064
:107A50003040D1F7815061F708953F924F925F9285
:107A60006F927F928F929F92AF92BF92CF92DF924E
:107A7000EF92FF920F931F93CF93DF93000080E16B
:107A80008093C4001092C50088E18093C10086E015
:107A90008093C2005098589A259A81E00E94143D24
:107AA00024E1F22E9EE1E92E85E9D82E0FE0C02ECA
:107AB00010E1B12EAA24A394B1E49B2EA6E58A2E50
:107AC000F2E57F2EE0E26E2E79E4572E63E5462E36
:107AD00050E5352E0E94763C8033B1F18133B9F107
:107AE000803409F46FC0813409F476C0823409F41B
:107AF00085C0853409F488C0803531F1823521F1A3
:107B0000813511F1853509F485C0863509F48DC0BC
:107B1000843609F496C0843709F403C1853709F423
:107B200072C1863709F466C0809103018F5F80932C
:107B30000301853079F6E0910401F0910501099582
:107B40000E94763C803351F60E94F33CC3CF0E94E2
:107B5000763C803249F78091C00085FFFCCFF092DF
:107B6000C6008091C00085FFFCCF9092C600809136
:107B7000C00085FFFCCF8092C6008091C00085FFC9
:107B8000FCCF7092C6008091C00085FFFCCF609250
:107B9000C6008091C00085FFFCCF5092C600809146
:107BA000C00085FFFCCF4092C6008091C00085FFD9
:107BB000FCCF3092C6008091C00085FFFCCFB09210
:107BC000C60088CF0E94763C863808F4BDCF0E945C
:107BD000763C0E94F33C7ECF0E94763C803809F4CC
:107BE0009CC0813809F40BC1823809F43CC1883942
:107BF00009F48FC080E00E94C73C6CCF84E10E94F2
:107C0000BD3C0E94F33C66CF85E00E94BD3C0E94D3
:107C1000F33C60CF0E94763C809306010E94763C44
:107C2000809307010E94F33C55CF0E94763C80333D
:107C300009F41DC183E00E94BD3C80E00E94C73C66
:107C400049CF0E94763C809309020E94763C809343
:107C5000080280910C028E7F80930C020E94763C79
:107C6000853409F415C18091080290910902892B8D
:107C700089F000E010E00E94763CF801E85FFE4FDA
:107C800080830F5F1F4F80910802909109020817AF
:107C9000190788F30E94763C803209F045CF809125
:107CA0000C0280FF01C16091060170910701660F0F
:107CB000771F7093070160930601A0910802B091AD
:107CC00009021097C9F0E8E0F1E09B01AD014E0F09
:107CD0005F1FF999FECF32BD21BD819180BDFA9A17
:107CE000F99A2F5F3F4FE417F50799F76A0F7B1F4B
:107CF00070930701609306018091C00085FFFCCF5F
:107D0000F092C6008091C00085FFFCCFB092C60003
:107D1000E1CE83E00E94C73CDDCE82E00E94C73CFA
:107D2000D9CE0E94763C809309020E94763C8093D3
:107D300008028091060190910701880F991F909386
:107D40000701809306010E94763C853409F4A6C0A1
:107D500080910C028E7F80930C020E94763C8032D0
:107D600009F0B8CE8091C00085FFFCCFF092C6002C
:107D7000609108027091090261157105B9F140E046
:107D800050E080910C02A82FA170B82FB27011C0E2
:107D9000BB2309F45CC0E0910601F0910701319624
:107DA000F0930701E09306014F5F5F4F46175707B7
:107DB000E8F4AA2369F3F999FECF209106013091E6
:107DC000070132BD21BDF89A90B58091C00085FFB2
:107DD000FCCF9093C6002F5F3F4F30930701209355
:107DE00006014F5F5F4F4617570718F38091C00099
:107DF00085FDE5CE8091C00085FFF8CFE0CE81E023
:107E00000E94C73C67CE0E94763C803209F08CCE3F
:107E10008091C00085FFFCCFF092C6008091C00029
:107E200085FFFCCFE092C6008091C00085FFFCCFAB
:107E3000D092C6008091C00085FFFCCFC092C600E2
:107E40008091C00085FFFCCFB092C60043CEE09188
:107E50000601F091070194918091C00085FFFCCF4D
:107E60009093C6009CCF80E10E94C73C33CE0E9415
:107E7000763C0E94763C182F0E94763C112309F430
:107E800083C0113009F484C08FE00E94C73C22CE29
:107E900080910C02816080930C02E5CE80910C02EF
:107EA000816080930C0259CF809107018823880F4D
:107EB000880B8A2180930B02809106019091070123
:107EC000880F991F90930701809306018091080203
:107ED00080FF09C080910802909109020196909359
:107EE000090280930802F894F999FECF1127E091D6
:107EF0000601F0910701C8E0D1E08091080290915D
:107F00000902103091F40091570001700130D9F34B
:107F100003E000935700E89500915700017001308D
:107F2000D9F301E100935700E89509901990009169
:107F3000570001700130D9F301E000935700E89534
:107F40001395103498F011270091570001700130FB
:107F5000D9F305E000935700E895009157000170B0
:107F60000130D9F301E100935700E895329602976A
:107F700009F0C7CF103011F00296E5CF112480919F
:107F8000C00085FFB9CEBCCE8EE10E94C73CA2CD19
:0E7F900085E90E94C73C9ECDF894FFCF80008B
:00000001FF
